{
  "address": "0xaea8AD50f962Ec200FC44CEe94b7138F7f6A372C",
  "abi": [
    {
      "inputs": [
        {
          "internalType": "address",
          "name": "exampleExternalContractAddress",
          "type": "address"
        }
      ],
      "stateMutability": "nonpayable",
      "type": "constructor"
    },
    {
      "anonymous": false,
      "inputs": [
        {
          "indexed": false,
          "internalType": "address",
          "name": "",
          "type": "address"
        },
        {
          "indexed": false,
          "internalType": "uint256",
          "name": "",
          "type": "uint256"
        }
      ],
      "name": "Stake",
      "type": "event"
    },
    {
      "anonymous": false,
      "inputs": [
        {
          "indexed": false,
          "internalType": "address",
          "name": "",
          "type": "address"
        },
        {
          "indexed": false,
          "internalType": "uint256",
          "name": "",
          "type": "uint256"
        }
      ],
      "name": "Withdraw",
      "type": "event"
    },
    {
      "inputs": [
        {
          "internalType": "address",
          "name": "",
          "type": "address"
        }
      ],
      "name": "balances",
      "outputs": [
        {
          "internalType": "uint256",
          "name": "",
          "type": "uint256"
        }
      ],
      "stateMutability": "view",
      "type": "function"
    },
    {
      "inputs": [],
      "name": "deadline",
      "outputs": [
        {
          "internalType": "uint256",
          "name": "",
          "type": "uint256"
        }
      ],
      "stateMutability": "view",
      "type": "function"
    },
    {
      "inputs": [],
      "name": "exampleExternalContract",
      "outputs": [
        {
          "internalType": "contract ExampleExternalContract",
          "name": "",
          "type": "address"
        }
      ],
      "stateMutability": "view",
      "type": "function"
    },
    {
      "inputs": [],
      "name": "execute",
      "outputs": [],
      "stateMutability": "nonpayable",
      "type": "function"
    },
    {
      "inputs": [],
      "name": "openForWithdraw",
      "outputs": [
        {
          "internalType": "bool",
          "name": "",
          "type": "bool"
        }
      ],
      "stateMutability": "view",
      "type": "function"
    },
    {
      "inputs": [],
      "name": "stake",
      "outputs": [],
      "stateMutability": "payable",
      "type": "function"
    },
    {
      "inputs": [],
      "name": "threshold",
      "outputs": [
        {
          "internalType": "uint256",
          "name": "",
          "type": "uint256"
        }
      ],
      "stateMutability": "view",
      "type": "function"
    },
    {
      "inputs": [],
      "name": "timeLeft",
      "outputs": [
        {
          "internalType": "uint256",
          "name": "",
          "type": "uint256"
        }
      ],
      "stateMutability": "view",
      "type": "function"
    },
    {
      "inputs": [],
      "name": "totalBalance",
      "outputs": [
        {
          "internalType": "uint256",
          "name": "",
          "type": "uint256"
        }
      ],
      "stateMutability": "view",
      "type": "function"
    },
    {
      "inputs": [],
      "name": "withdraw",
      "outputs": [],
      "stateMutability": "payable",
      "type": "function"
    },
    {
      "stateMutability": "payable",
      "type": "receive"
    }
  ],
  "transactionHash": "0x7d87ae72902f7ad37fc942502ffa55343de260e05c96111d098f504595268d99",
  "args": [
    "0xAB2F20fD82921B726f9705c1760097D4D9a4fa0D"
  ],
  "numDeployments": 1,
  "solcInputHash": "5b91300da3e786904b7b06667fdf8681",
  "bytecode": "0x6080604052610011426203f4806100a1565b6001556002805460ff19169055600060035534801561002f57600080fd5b5060405161079338038061079383398101604081905261004e91610073565b600480546001600160a01b0319166001600160a01b03929092169190911790556100c5565b600060208284031215610084578081fd5b81516001600160a01b038116811461009a578182fd5b9392505050565b600082198211156100c057634e487b7160e01b81526011600452602481fd5b500190565b6106bf806100d46000396000f3fe6080604052600436106100955760003560e01c806342cde4e81161005957806342cde4e81461012457806361461954146101405780639876a643146101555780639f75f2271461017f578063ad7a672f146101b757600080fd5b80631300a6d1146100a957806327e235e3146100d157806329dcb0cf146100fe5780633a4b66f1146101145780633ccfd60b1461011c57600080fd5b366100a4576100a26101cd565b005b600080fd5b3480156100b557600080fd5b506100be610242565b6040519081526020015b60405180910390f35b3480156100dd57600080fd5b506100be6100ec3660046105f6565b60006020819052908152604090205481565b34801561010a57600080fd5b506100be60015481565b6100a26101cd565b6100a2610266565b34801561013057600080fd5b506100be670de0b6b3a764000081565b34801561014c57600080fd5b506100a26104a1565b34801561016157600080fd5b5060025461016f9060ff1681565b60405190151581526020016100c8565b34801561018b57600080fd5b5060045461019f906001600160a01b031681565b6040516001600160a01b0390911681526020016100c8565b3480156101c357600080fd5b506100be60035481565b34600360008282546101df9190610644565b90915550503360009081526020819052604081208054349290610203908490610644565b9091555050604080513381523460208201527febedb8b3c678666e7f36970bc8f57abf6d8fa2e828c0da91ea5b75bf68ed101a910160405180910390a1565b600060015442106102535750600090565b42600154610261919061065c565b905090565b6004805460408051639d9a7fe960e01b815290516001600160a01b0390921692639d9a7fe9928282019260209290829003018186803b1580156102a857600080fd5b505afa1580156102bc573d6000803e3d6000fd5b505050506040513d601f19601f820116820180604052508101906102e09190610624565b156103325760405162461bcd60e51b815260206004820152601a60248201527f436f6e747261637420616c726561647920636f6d706c6574656400000000000060448201526064015b60405180910390fd5b47670de0b6b3a7640000116103955760405162461bcd60e51b815260206004820152602360248201527f5468726573686f6c64206d657420736f20796f752063616e277420776974686460448201526272617760e81b6064820152608401610329565b61039d610242565b156103e15760405162461bcd60e51b8152602060048201526014602482015273111958591b1a5b99481b9bdd081b595d081e595d60621b6044820152606401610329565b33600090815260208190526040812054600380549192839261040490849061065c565b9091555050336000818152602081905260408082208290555190919083908381818185875af1925050503d806000811461045a576040519150601f19603f3d011682016040523d82523d6000602084013e61045f565b606091505b505060408051338152602081018590529192507f884edad9ce6fa2440d8a54cc123490eb96d2768479d49ff9c7366125a9424364910160405180910390a15050565b6004805460408051639d9a7fe960e01b815290516001600160a01b0390921692639d9a7fe9928282019260209290829003018186803b1580156104e357600080fd5b505afa1580156104f7573d6000803e3d6000fd5b505050506040513d601f19601f8201168201806040525081019061051b9190610624565b156105685760405162461bcd60e51b815260206004820152601a60248201527f436f6e747261637420616c726561647920636f6d706c657465640000000000006044820152606401610329565b670de0b6b3a7640000471015801561058257506001544210155b156105e757600480546040805163522e117760e01b815290516001600160a01b039092169263522e1177924792808301926000929182900301818588803b1580156105cc57600080fd5b505af11580156105e0573d6000803e3d6000fd5b5050505050565b6002805460ff19166001179055565b600060208284031215610607578081fd5b81356001600160a01b038116811461061d578182fd5b9392505050565b600060208284031215610635578081fd5b8151801515811461061d578182fd5b6000821982111561065757610657610673565b500190565b60008282101561066e5761066e610673565b500390565b634e487b7160e01b600052601160045260246000fdfea2646970667358221220aedbb2e7d9c9af068565d424ae54245b84ac3eca10b4115a4b2bc69a456c5d0464736f6c63430008040033",
  "devdoc": {
    "kind": "dev",
    "methods": {},
    "version": 1
  },
  "userdoc": {
    "kind": "user",
    "methods": {},
    "version": 1
  },
  "storageLayout": {
    "storage": [
      {
        "astId": 22,
        "contract": "contracts/Staker.sol:Staker",
        "label": "balances",
        "offset": 0,
        "slot": "0",
        "type": "t_mapping(t_address,t_uint256)"
      },
      {
        "astId": 31,
        "contract": "contracts/Staker.sol:Staker",
        "label": "deadline",
        "offset": 0,
        "slot": "1",
        "type": "t_uint256"
      },
      {
        "astId": 34,
        "contract": "contracts/Staker.sol:Staker",
        "label": "openForWithdraw",
        "offset": 0,
        "slot": "2",
        "type": "t_bool"
      },
      {
        "astId": 37,
        "contract": "contracts/Staker.sol:Staker",
        "label": "totalBalance",
        "offset": 0,
        "slot": "3",
        "type": "t_uint256"
      },
      {
        "astId": 40,
        "contract": "contracts/Staker.sol:Staker",
        "label": "exampleExternalContract",
        "offset": 0,
        "slot": "4",
        "type": "t_contract(ExampleExternalContract)12"
      }
    ],
    "types": {
      "t_address": {
        "encoding": "inplace",
        "label": "address",
        "numberOfBytes": "20"
      },
      "t_bool": {
        "encoding": "inplace",
        "label": "bool",
        "numberOfBytes": "1"
      },
      "t_contract(ExampleExternalContract)12": {
        "encoding": "inplace",
        "label": "contract ExampleExternalContract",
        "numberOfBytes": "20"
      },
      "t_mapping(t_address,t_uint256)": {
        "encoding": "mapping",
        "key": "t_address",
        "label": "mapping(address => uint256)",
        "numberOfBytes": "32",
        "value": "t_uint256"
      },
      "t_uint256": {
        "encoding": "inplace",
        "label": "uint256",
        "numberOfBytes": "32"
      }
    }
  }
}